:0400000020EF00F0FD
:100008006882D9CF63F0DACF64F0F3CF65F0F4CF2C
:1000180066F0F2A412EF00F014EF00F016EF00F013
:1000280022EC00F066C0F4FF65C0F3FF64C0DAFF9D
:1000380063C0D9FF68921100A5EF00F0F294EF0EAB
:10004800D76EBB0ED66E4B4A4C2A300E4B5C750EE3
:100058004C58D8A032EF00F034EF00F07CEF00F0FD
:10006800000E4A6E000E496E4ABE44EF00F04A5038
:1000780009E1140E495CD8A044EF00F046EF00F007
:1000880048EF00F078EF00F049C05CF04AC05DF03E
:10009800000E5F6E030E5E6E92EC00F0030E5C24A1
:1000A800D96E000E5D20DA6EDE04D8A45EEF00F093
:1000B80060EF00F074EF00F049C05CF04AC05DF0FA
:1000C800000E5F6E030E5E6E92EC00F0010E5C2473
:1000D800D96E000E5D20DA6E4B50DE5E4C50DD5A54
:1000E800494A4A2A38EF00F0000E4C6E000E4B6E5B
:1000F8001200070E926EC2800C0EC16E0E0EC06EFC
:100108000F0E936E800E946EE00EF26ED09EF19EEE
:10011800000EF06E000E896E899812005C505E0227
:10012800F3CF60F0F4CF61F05C505F02F3506126CA
:100138005D505E02F350612660C05CF061C05DF006
:100148001200676A00EE01F05B0EEE6AE806FDE158
:1001580068906892000EF86E0001B3EF00F0BBECF7
:1001680000F07DEC00F0B7EF00F020EF00F0120097
:020000040020DA
:08000000FFFFFFFFFFFFFFFF00
:020000040030CA
:0E000000FF06191EFF8181FF03C003E00340CD
:00000001FF
