:020000040000FA
:0400000020EF00F0FD
:100008005D82D9CF58F0DACF59F0F3CF5AF0F4CF58
:100018005BF0F2A412EF00F014EF00F016EF00F01E
:1000280002EC01F05BC0F4FF5AC0F3FF59C0DAFFDD
:0C00380058C0D9FF5D9211005DEF01F08F
:1002000000302000F294EF0ED76EBB0ED66E434A3C
:10021000442A300E435C750E4458D8A012EF01F00A
:1002200014EF01F05CEF01F0000E426E000E416E23
:1002300042BE24EF01F0425009E1140E415CD8A007
:1002400024EF01F026EF01F028EF01F058EF01F064
:1002500041C051F042C052F0000E546E030E536E76
:1002600092EC01F0030E5124D96E000E5220DA6E8A
:10027000DE04D8A43EEF01F040EF01F054EF01F0AE
:1002800041C051F042C052F0000E546E030E536E46
:1002900092EC01F0010E5124D96E000E5220DA6E5C
:1002A0004350DE5E4450DD5A414A422A18EF01F0C5
:1002B000000E446E000E436E1200F60EF66E020E35
:1002C000F76E000EF86E00EE80F010EE2DF00900D3
:1002D000F5CFEEFFE550E150FAE15C6A00EE01F087
:1002E000500EEE6AE806FDE15D905D92000EF86E3C
:1002F0000001A5EF01F0313131312D414243322D62
:10030000444546332D474849342D4A4B4C352D4DF5
:100310004E4F362D5051525337545556382D57584D
:03032000595A39EE
:1003240051505302F3CF55F0F4CF56F051505402CC
:10033400F350562652505302F350562655C051F0EE
:1003440056C052F01200ABEC01F0A7EF01F020EF21
:0403540000F01200A3
:020000040020DA
:08000000FFFFFFFFFFFFFFFF00
:020000040030CA
:0E000000FF06191EFF8181FF03C003E00340CD
:00000001FF
